:100000008FC0A9C0A8C0A7C0A6C0A5C0ADC1A3C0CD
:10001000A2C0A1C0A0C09FC09EC09DC09CC09BC0EC
:100020009AC099C098C000407A10F35A00A0724E4E
:1000300018090010A5D4E80000E87648170000E48D
:100040000B54020000CA9A3B000000E1F5050000D5
:1000500080969800000040420F000000A08601003A
:100060000000102700000000E8030000000064000A
:10007000000000000A000000000001000000000075
:100080002C76D888DC674F0823DFC1DFAE59E1B199
:10009000B796E5E3E453C63AE651997696E8E6C2A8
:1000A0008426EB898C9B62ED407C6FFCEFBC9C9FAF
:1000B00040F2BAA56FA5F490055A2AF75C936B6CD1
:1000C000F9676DC11BFCE0E40D47FEF520E6B500C5
:1000D000D0ED902E0300943577050080841E080033
:1000E00000204E0A000000C80C333333330F986EE3
:1000F00012831141EF8D2114893BE65516CFFEE6A0
:10010000DB18D1844B381BF77C1D901DA4BBE42465
:10011000203284725E228100C9F124ECA1E53D27E2
:1001200011241FBECFE5D4E0DEBFCDBF10E0A0E6B6
:10013000B0E0EEE1FBE002C005900D92AC37B107F4
:10014000D9F720E0ACE7B0E001C01D92AE38B207AD
:10015000E1F786D0E2C454CF80FF02C0A89A01C064
:10016000A89881FF02C0A99A01C0A99882FF02C085
:10017000AA9A01C0AA9883FF02C0AB9A0895AB98CF
:100180000895CF93C82FAD9A82958F70E5DFAD9813
:10019000AD9A8C2FE1DFAD9880E18A95F1F700C030
:1001A000CF910895AC98EDCFAC9AEBCFCF93DF937E
:1001B000EC018991882311F0F7DFFBCFDF91CF911C
:1001C000089590E4699F800D11248068EBCF81E051
:1001D000E9DF83EF91E00197F1F700C00000089597
:1001E00082E0E0DF83EF91E00197F1F700C00000CB
:1001F0000895CF93A09AA19AA29AA39AA59AA49A95
:1002000085EA9EE00197F1F700C00000AC98AD9838
:10021000C3E0AD9A83E0A0DFAD9881EE94E0019752
:10022000F1F700C00000C150A1F7AD9A82E094DF61
:10023000AD9889EF90E00197F1F700C0000088E2E7
:10024000B1DF88E0AFDF81E0ADDF83EF91E00197C0
:10025000F1F700C0000086E0A5DF8CE0CF91A2CFCF
:100260001EBC8AE090E099BD88BD80E189BF78948A
:100270008EB583608EBDBDDFAADF80E690E096DF9D
:1002800061E080E09EDF87E690E090DFFFCF82981C
:100290008A9A86EA8A95F1F700C08A989FE09A9533
:1002A000F1F780B39CE99A95F1F700C082FB8827AB
:1002B00080F991E0892708958A9A00C000C0000063
:1002C000813009F48A988AE18A95F1F700C08A980A
:1002D00008958A9A00C08A9885E08A95F1F780B3DC
:1002E00082FB882780F908950F931F93CF93DF93A4
:1002F000C0E0D0E0082F10E0C8010C2E02C0959598
:1003000087950A94E2F78170D7DF2196C830D1052E
:1003100099F781E28A95F1F70000DF91CF911F9163
:100320000F910895FF920F931F93CF93DF93C0E037
:10033000D0E0F12C01E010E0CCDF882339F0980107
:100340000C2E01C0220F0A94EAF7F22A85E08A9562
:10035000F1F72196C830D10579F78F2DDF91CF9134
:100360001F910F91FF9008951F920F920FB60F9259
:1003700011240F931F932F933F934F935F936F938A
:100380007F938F939F93AF93BF93CF93DF93EF931D
:10039000FF937DDF813051F58CECA6DF84E4A4DF90
:1003A00076DF8CECA1DF8EEB9FDFBCDFC82FBADFDE
:1003B000D82F6DDF6D2F70E0762F66276C0F711DC3
:1003C000882777FD8095982F44D020E030E040E8E2
:1003D0005DE37AD006E810E021E030E041E050E053
:1003E00027D160E086E0EDDEC80105C060E086E070
:1003F000E8DE8EE690E0DADE80917C0090917D0070
:10040000019690937D0080937C002EE730E041E0E0
:1004100050E061E070E00CD161E086E0D2DE8EE772
:1004200090E0C4DEFF91EF91DF91CF91BF91AF914A
:100430009F918F917F916F915F914F913F912F91FC
:100440001F910F910F900FBE0F901F901895E89479
:1004500009C097FB3EF490958095709561957F4F0C
:100460008F4F9F4F9923A9F0F92F96E9BB279395BA
:10047000F695879577956795B795F111F8CFFAF4CA
:10048000BB0F11F460FF1BC06F5F7F4F8F4F9F4FFB
:1004900016C0882311F096E911C0772321F09EE859
:1004A000872F762F05C0662371F096E8862F70E0BF
:1004B00060E02AF09A95660F771F881FDAF7880F99
:1004C0009695879597F908950BD078C069D028F054
:1004D0006ED018F0952309F05AC05FC01124A2C055
:1004E0007ED0A0F3959FD1F3950F50E0551F629FEA
:1004F000F001729FBB27F00DB11D639FAA27F00D7D
:10050000B11DAA1F649F6627B00DA11D661F829FA3
:100510002227B00DA11D621F739FB00DA11D621F88
:10052000839FA00D611D221F749F3327A00D611DA5
:10053000231F849F600D211D822F762F6A2F112487
:100540009F5750408AF0E1F088234AF0EE0FFF1FDA
:10055000BB1F661F771F881F91505040A9F79E3F11
:10056000510570F014C05EC05F3FECF3983EDCF3C1
:10057000869577956795B795F795E7959F5FC1F74E
:10058000FE2B880F911D9695879597F9089597F9F9
:100590009F6780E870E060E008959FEF80EC089529
:1005A00000240A9416161706180609060895002452
:1005B0000A9412161306140605060895092E0394CC
:1005C000000C11F4882352F0BB0F40F4BF2B11F440
:1005D00060FF04C06F5F7F4F8F4F9F4F089557FD9F
:1005E0009058440F551F59F05F3F71F04795880FA1
:1005F00097FB991F61F09F3F79F087950895121638
:1006000013061406551FF2CF4695F1DF08C01616E3
:1006100017061806991FF1CF869571056105089494
:100620000895E894BB2766277727CB0197F90895AB
:10063000EF920F931F93CF93DF93E80147FF02C020
:1006400034E101C034E0E42FFF27E7FDF095F7FF28
:1006500003C0F195E195F109E32E022F2E2FAE0193
:1006600007D0CE01DF91CF911F910F91EF900895A8
:100670006F927F929F92AF92BF92CF92DF92EF9252
:10068000FF920F931F93CF93DF93CDB7DEB72997D8
:100690000FB6F894DEBF0FBECDBF6A01B22E102F89
:1006A0000C3320F4FF24F394F00E02C04CE3F42E3C
:1006B0000F2D27E0AE014F5F5F4F57D17981272F74
:1006C0002970213031F0E1FC06C0E0FC06C060E09A
:1006D00005C06DE203C06BE201C060E2AE2DA07107
:1006E00073FF36C0662311F084E001C083E08B15F0
:1006F00010F4B81A01C0B12CA1110BC0F6018B2D5A
:1007000090E2882319F091938150FBCFCB0CD11C40
:10071000B12C662331F0F601608396012F5F3F4FC5
:100720006901C6010396E2FE05C02EE4F6012083AE
:1007300031E404C02EE6F601208331E631832283C2
:10074000FC012B2D30E22223F1F131932150FBCF1C
:1007500072FF40C0662311F084E001C083E08B1576
:1007600010F4B81A01C0B12CA1110BC0F6018B2DE9
:1007700090E2882319F091938150FBCFCB0CD11CD0
:10078000B12C662331F0F601608396012F5F3F4F55
:100790006901C6010396E2FE07C029E4F601208341
:1007A0002EE4218326E406C029E6F60120832EE606
:1007B000218326E62283FC012B2D30E2222319F02F
:1007C00031932150FBCFFC01EB0DF11D10828EEF18
:1007D0009FEFB7C0B1E0611101C0B0E04B2F50E016
:1007E0001816190624F49C012F5F3F4F02C021E028
:1007F00030E0240F351F112329F0412F50E04F5FC7
:100800005F4F02C040E050E0420F531F2B2D30E0FD
:100810004217530714F4B41A01C0B12C2E2D2871BD
:1008200059F4F6012B2D30E2222319F03193215097
:10083000FBCFCB0CD11CB12CBB2331F0F601608374
:1008400096012F5F3F4F6901A1110BC0F6012B2DBF
:1008500030E3222319F031932150FBCFCB0CD11C74
:10086000B12CF80E0A81372F3071A32E74FF03C00C
:10087000013309F4FA941F142CF42F2D293018F0A9
:1008800028E001C021E0682F392F97FF02C060E007
:1008900030E0462F532F612C712C3EE2932EBC0189
:1008A000621B71099B01DC01A41BB50BE1E0F0E0C8
:1008B000EC0FFD1FAE0FBF1FE12EF12CF194E19460
:1008C000F1084F3FFFEF5F0731F4F6019082B60168
:1008D0006F5F7F4F6B01841795074CF02417350726
:1008E00034F4BD01660D771DFB01118101C010E3D9
:1008F00041505109FFEF6F1A7F0AB6016F5F7F4FBA
:100900004E155F0524F0F60110836B01DACF48170E
:10091000590739F4063320F4053319F4A11001C046
:1009200011E3F6011083FB018B2D90E2882319F06F
:1009300091938150FBCFFB01EB0DF11D108280E004
:1009400090E029960FB6F894DEBF0FBECDBFDF91C1
:10095000CF911F910F91FF90EF90DF90CF90BF90BC
:10096000AF909F907F906F900895283008F027E017
:100970003327DA01990F311D87FD916000966105DB
:10098000710539F432602E5F3D9330E32A95E1F72B
:1009900008959F3F30F080387105610509F03C5F94
:1009A0003C5F3D93913008F08068911DDF93CF93B9
:1009B0001F930F93FF92EF92192F987F9695E92F2F
:1009C00096959695E90FFF27E058FF4F9927332713
:1009D000EE24FF24A701E70105900894079428F46A
:1009E000360FE71EF81E491F511D660F771F881F1F
:1009F000991F0694A1F70590079428F4E70EF81EB6
:100A0000491F561FC11D770F881F991F661F069427
:100A1000A1F70590079428F4F80E491F561FC71F29
:100A2000D11D880F991F661F771F0694A1F70590A7
:100A3000079420F4490F561FC71FD81F990F661F30
:100A4000771F881F0694A9F784911095177041F0BD
:100A5000D695C79557954795F794E7941A95C1F79A
:100A6000E6E2F0E0689415901591359165919591C5
:100A700005907FE27395E118F10A430B560BC90B01
:100A8000D009C0F7E10CF11E431F561FC91FD01D2E
:100A90007EF4703311F48A95E6CFE894015030F07B
:100AA000080F0AF40027021708F4202F2395022FBD
:100AB0007A3328F079E37D932A95E9F710C07D9386
:100AC0002A9589F606949795679537951795179403
:100AD000E118F10A430B560BC90BD00998F0239586
:100AE0007E9173957A3308F070E37C932013B8F706
:100AF0007E9170617D9330F0839571E37D9370E317
:100B00002A95E1F71124EF90FF900F911F91CF915B
:0E0B1000DF91992787FD90950895F894FFCF07
:100B1E0054656D703A20004E756D733A2000427226
:0C0B2E00616B20706F6D696172752E00A4
:00000001FF
